{
  "contractName": "DogsV2",
  "abi": [
    {
      "inputs": [],
      "stateMutability": "nonpayable",
      "type": "constructor"
    },
    {
      "inputs": [],
      "name": "_initialized",
      "outputs": [
        {
          "internalType": "bool",
          "name": "",
          "type": "bool"
        }
      ],
      "stateMutability": "view",
      "type": "function",
      "constant": true
    },
    {
      "inputs": [],
      "name": "getNumberOfDogs",
      "outputs": [
        {
          "internalType": "uint256",
          "name": "",
          "type": "uint256"
        }
      ],
      "stateMutability": "view",
      "type": "function",
      "constant": true
    },
    {
      "inputs": [],
      "name": "owner",
      "outputs": [
        {
          "internalType": "address",
          "name": "",
          "type": "address"
        }
      ],
      "stateMutability": "view",
      "type": "function",
      "constant": true
    },
    {
      "inputs": [
        {
          "internalType": "address",
          "name": "_owner",
          "type": "address"
        }
      ],
      "name": "initialize",
      "outputs": [],
      "stateMutability": "nonpayable",
      "type": "function"
    },
    {
      "inputs": [
        {
          "internalType": "uint256",
          "name": "toSet",
          "type": "uint256"
        }
      ],
      "name": "setNumberOfDogs",
      "outputs": [],
      "stateMutability": "nonpayable",
      "type": "function"
    }
  ],
  "bytecode": "0x608060405234801561001057600080fd5b506100203361002560201b60201c565b610083565b600560009054906101000a900460ff161561003f57600080fd5b80600560016101000a81548173ffffffffffffffffffffffffffffffffffffffff021916908373ffffffffffffffffffffffffffffffffffffffff16021790555050565b610445806100926000396000f3fe608060405234801561001057600080fd5b50600436106100575760003560e01c806314861b221461005c5780631680a5ed146100785780633072cf60146100965780638da5cb5b146100b4578063c4d66de8146100d2575b600080fd5b61007660048036038101906100719190610261565b6100ee565b005b61008061016c565b60405161008d919061029d565b60405180910390f35b61009e61018f565b6040516100ab91906102d3565b60405180910390f35b6100bc6101a2565b6040516100c9919061032f565b60405180910390f35b6100ec60048036038101906100e79190610376565b6101c8565b005b600560019054906101000a900473ffffffffffffffffffffffffffffffffffffffff1673ffffffffffffffffffffffffffffffffffffffff163373ffffffffffffffffffffffffffffffffffffffff161461014857600080fd5b806000604051610157906103fa565b90815260200160405180910390208190555050565b60008060405161017b906103fa565b908152602001604051809103902054905090565b600560009054906101000a900460ff1681565b600560019054906101000a900473ffffffffffffffffffffffffffffffffffffffff1681565b600560009054906101000a900460ff16156101e257600080fd5b80600560016101000a81548173ffffffffffffffffffffffffffffffffffffffff021916908373ffffffffffffffffffffffffffffffffffffffff16021790555050565b600080fd5b6000819050919050565b61023e8161022b565b811461024957600080fd5b50565b60008135905061025b81610235565b92915050565b60006020828403121561027757610276610226565b5b60006102858482850161024c565b91505092915050565b6102978161022b565b82525050565b60006020820190506102b2600083018461028e565b92915050565b60008115159050919050565b6102cd816102b8565b82525050565b60006020820190506102e860008301846102c4565b92915050565b600073ffffffffffffffffffffffffffffffffffffffff82169050919050565b6000610319826102ee565b9050919050565b6103298161030e565b82525050565b60006020820190506103446000830184610320565b92915050565b6103538161030e565b811461035e57600080fd5b50565b6000813590506103708161034a565b92915050565b60006020828403121561038c5761038b610226565b5b600061039a84828501610361565b91505092915050565b600081905092915050565b7f446f677300000000000000000000000000000000000000000000000000000000600082015250565b60006103e46004836103a3565b91506103ef826103ae565b600482019050919050565b6000610405826103d7565b915081905091905056fea26469706673582212204c1da7ce2223f8ac093eaf9fa900f2d7947ca5582a8bd38b770f5d5e1afae42364736f6c634300080a0033",
  "immutableReferences": {},
  "source": "pragma solidity ^0.8.0;\n\nimport \"./Storage.sol\";\n\ncontract Dogs is Storage {\n\n    modifier onlyOwner() {\n        require(msg.sender == owner);\n        _;\n    }\n\n    function getNumberOfDogs() public view returns(uint256) {\n        return _uintStorage[\"Dogs\"];\n    }\n    \n    function setNumberOfDogs(uint256 toSet) public virtual {\n        _uintStorage[\"Dogs\"] = toSet;\n    }\n    \n}\n\ncontract DogsV2 is Dogs {\n\n    \n    constructor() {\n        initialize(msg.sender);\n    }\n\n    function initialize(address _owner) public {\n        require(!_initialized);\n        owner = _owner;\n    }\n    function setNumberOfDogs(uint256 toSet) public override onlyOwner{\n        _uintStorage[\"Dogs\"] = toSet;\n    }\n}",
  "sourcePath": "/home/matt/Documents/FullUpgradableContract/contracts/FunctionalContract.sol",
  "compiler": {
    "name": "solc",
    "version": "0.8.10+commit.fc410830.Emscripten.clang"
  },
  "schemaVersion": "3.4.3",
  "updatedAt": "2021-12-03T09:38:50.046Z",
  "networkType": "ethereum",
  "devdoc": {
    "kind": "dev",
    "methods": {},
    "version": 1
  },
  "userdoc": {
    "kind": "user",
    "methods": {},
    "version": 1
  }
}