{
  "contractName": "Proxy",
  "abi": [
    {
      "inputs": [
        {
          "internalType": "address",
          "name": "_currentAddress",
          "type": "address"
        }
      ],
      "stateMutability": "nonpayable",
      "type": "constructor"
    },
    {
      "stateMutability": "payable",
      "type": "fallback",
      "payable": true
    },
    {
      "inputs": [],
      "name": "_initialized",
      "outputs": [
        {
          "internalType": "bool",
          "name": "",
          "type": "bool"
        }
      ],
      "stateMutability": "view",
      "type": "function",
      "constant": true
    },
    {
      "inputs": [],
      "name": "owner",
      "outputs": [
        {
          "internalType": "address",
          "name": "",
          "type": "address"
        }
      ],
      "stateMutability": "view",
      "type": "function",
      "constant": true
    },
    {
      "inputs": [
        {
          "internalType": "address",
          "name": "_newAddress",
          "type": "address"
        }
      ],
      "name": "upgrade",
      "outputs": [],
      "stateMutability": "nonpayable",
      "type": "function"
    }
  ],
  "bytecode": "0x608060405234801561001057600080fd5b50604051610465380380610465833981810160405281019061003291906100dc565b80600660006101000a81548173ffffffffffffffffffffffffffffffffffffffff021916908373ffffffffffffffffffffffffffffffffffffffff16021790555050610109565b600080fd5b600073ffffffffffffffffffffffffffffffffffffffff82169050919050565b60006100a98261007e565b9050919050565b6100b98161009e565b81146100c457600080fd5b50565b6000815190506100d6816100b0565b92915050565b6000602082840312156100f2576100f1610079565b5b6000610100848285016100c7565b91505092915050565b61034d806101186000396000f3fe6080604052600436106100385760003560e01c80630900f0101461012b5780633072cf60146101545780638da5cb5b1461017f57610039565b5b6000600660009054906101000a900473ffffffffffffffffffffffffffffffffffffffff169050600073ffffffffffffffffffffffffffffffffffffffff16600660009054906101000a900473ffffffffffffffffffffffffffffffffffffffff1673ffffffffffffffffffffffffffffffffffffffff1614156100bc57600080fd5b600080368080601f016020809104026020016040519081016040528093929190818152602001838380828437600081840152601f19601f820116905080830192505050505050509050600080825160208401855af43d604051816000823e8260008114610127578282f35b8282fd5b34801561013757600080fd5b50610152600480360381019061014d919061028a565b6101aa565b005b34801561016057600080fd5b506101696101ee565b60405161017691906102d2565b60405180910390f35b34801561018b57600080fd5b50610194610201565b6040516101a191906102fc565b60405180910390f35b80600660006101000a81548173ffffffffffffffffffffffffffffffffffffffff021916908373ffffffffffffffffffffffffffffffffffffffff16021790555050565b600560009054906101000a900460ff1681565b600560019054906101000a900473ffffffffffffffffffffffffffffffffffffffff1681565b600080fd5b600073ffffffffffffffffffffffffffffffffffffffff82169050919050565b60006102578261022c565b9050919050565b6102678161024c565b811461027257600080fd5b50565b6000813590506102848161025e565b92915050565b6000602082840312156102a05761029f610227565b5b60006102ae84828501610275565b91505092915050565b60008115159050919050565b6102cc816102b7565b82525050565b60006020820190506102e760008301846102c3565b92915050565b6102f68161024c565b82525050565b600060208201905061031160008301846102ed565b9291505056fea2646970667358221220531a1304d44a0168b1e82e4ba72351fde5c1ce5b0b67757b3b5319f02f75eaf464736f6c634300080a0033",
  "immutableReferences": {},
  "source": "pragma solidity ^0.8.0;\n\nimport \"./Storage.sol\";\n\ncontract Proxy is Storage {\n    address currentAddress;\n\n    constructor(address _currentAddress ) {\n        currentAddress = _currentAddress;\n    }\n\n    function upgrade(address _newAddress) public {\n        currentAddress = _newAddress;\n    }\n\n    fallback() payable external  {\n        address _implementation = currentAddress;\n        require(currentAddress != address(0));\n        bytes memory data = msg.data;\n        \n        assembly {\n            let result := delegatecall(gas(),_implementation, add(data,0x20),mload(data),0,0)\n            let size := returndatasize()\n            let ptr := mload(0x40)\n            returndatacopy(ptr,0,size)\n            switch result\n            case 0 {\n                revert(ptr,size)\n            } default { return (ptr,size)}\n        }\n    }\n}",
  "sourcePath": "/home/matt/Documents/FullUpgradableContract/contracts/Proxy.sol",
  "compiler": {
    "name": "solc",
    "version": "0.8.10+commit.fc410830.Emscripten.clang"
  },
  "schemaVersion": "3.4.3",
  "updatedAt": "2021-12-03T09:38:50.042Z",
  "networkType": "ethereum",
  "devdoc": {
    "kind": "dev",
    "methods": {},
    "version": 1
  },
  "userdoc": {
    "kind": "user",
    "methods": {},
    "version": 1
  }
}