{
  "contractName": "Storage",
  "abi": [
    {
      "inputs": [],
      "name": "_initialized",
      "outputs": [
        {
          "internalType": "bool",
          "name": "",
          "type": "bool"
        }
      ],
      "stateMutability": "view",
      "type": "function"
    },
    {
      "inputs": [],
      "name": "owner",
      "outputs": [
        {
          "internalType": "address",
          "name": "",
          "type": "address"
        }
      ],
      "stateMutability": "view",
      "type": "function"
    }
  ],
  "bytecode": "0x608060405234801561001057600080fd5b50610178806100206000396000f3fe608060405234801561001057600080fd5b50600436106100365760003560e01c80633072cf601461003b5780638da5cb5b14610059575b600080fd5b610043610077565b60405161005091906100cb565b60405180910390f35b61006161008a565b60405161006e9190610127565b60405180910390f35b600560009054906101000a900460ff1681565b600560019054906101000a900473ffffffffffffffffffffffffffffffffffffffff1681565b60008115159050919050565b6100c5816100b0565b82525050565b60006020820190506100e060008301846100bc565b92915050565b600073ffffffffffffffffffffffffffffffffffffffff82169050919050565b6000610111826100e6565b9050919050565b61012181610106565b82525050565b600060208201905061013c6000830184610118565b9291505056fea26469706673582212201f3e7057de036adeaafa897be0cda1a439ad82d341c2732680771919206bfb3464736f6c634300080a0033",
  "immutableReferences": {},
  "source": "pragma solidity ^0.8.0;\n\nimport \"@openzeppelin/contracts/access/Ownable.sol\";\ncontract Storage  {\n    mapping(string => uint256)  _uintStorage;\n    mapping(string => address) _addressStorage;\n    mapping(string => bool) _boolStorage;\n    mapping(string => string) _stringStorage;\n    mapping(string => bytes4) _bytesStorage;\n    bool public _initialized;\n    address public owner;\n}",
  "sourcePath": "/home/matt/Documents/FullUpgradableContract/contracts/Storage.sol",
  "compiler": {
    "name": "solc",
    "version": "0.8.10+commit.fc410830.Emscripten.clang"
  },
  "schemaVersion": "3.4.3",
  "updatedAt": "2021-12-03T09:26:59.634Z",
  "devdoc": {
    "kind": "dev",
    "methods": {},
    "version": 1
  },
  "userdoc": {
    "kind": "user",
    "methods": {},
    "version": 1
  }
}